:020000040800F2
:100000006820002001010008650A0008BB080008FC
:10001000BF080008FB0500081D11000800000000D3
:10002000000000000000000000000000ED0E0008CD
:10003000FF05000800000000F70D0008A5100008EB
:100040001B0100081B0100081B0100081B01000820
:100050001B0100081B0100081B0100081B01000810
:100060001B0100081B0100081B0100081B01000800
:100070001B0100081B0100081B0100081B010008F0
:100080001B0100081B0100081B0100081B010008E0
:100090001B0100081B0100081B0100081B010008D0
:1000A0001B0100081B0100081B0100081B010008C0
:1000B0001B0100081B0100081B0100081B010008B0
:1000C0001B0100081B0100081B0100081B010008A0
:1000D0001B0100081B0100081B0100081B01000890
:1000E0001B0100081B0100081B010008DFF80CD0F1
:1000F00000F00CFA00480047491200086820002070
:100100000648804706480047FEE7FEE7FEE7FEE7B1
:10011000FEE7FEE7FEE7FEE7FEE7FEE7BD100008AC
:10012000ED000008D2B201E000F8012B491EFBD21D
:1001300070470022F6E710B513460A4604461946F2
:10014000FFF7F0FF204610BD2DE9FE4F804681EA03
:100150000300C00F0C46009021F0004123F0004541
:10016000B8EB0200A94105D24046214690461C4604
:100170000B46024623F00040104347D0270DC7F33B
:100180000A00C3F30A510290401A019040286BDA2A
:10019000C3F3130040F4801B0098924620B1002363
:1001A000D2EB030A63EB0B0B01985946C0F14002F6
:1001B000504600F005F906460D4650465946019A4C
:1001C00000F01DF910EB08006141002487EA11528C
:1001D00084EAE7731A4340D0009A62B3019A012A75
:1001E0004FEA075215DC001B61EB02014FF00042A1
:1001F00002EA0752CDE90042001C41F58011324667
:100200002B4600F01DF903B0BDE8F08F40462146B3
:10021000F9E7001B61EB0201001C41F58013001897
:100220005B412018A2F5001747EB030140EAD570A7
:10023000B6196D4111E06D084FEA360645EAC07502
:100240004FEA0752001B61EB0201001C41F58011CF
:1002500049084FEA30000019514132462B4603B09D
:10026000BDE8F04F00F0DDB8009801224000002307
:10027000D0EB020263EBE073009821464FEAE07492
:10028000B8EB000061EB0401E9E783F000435BE7B2
:1002900081F0004158E72DE9F04D81EA030404F0B4
:1002A000004B21F0004514464FF0000A23F00041B6
:1002B00050EA050220D054EA01021DD0C5F30A57C6
:1002C0000246C5F31303C1F31300C1F30A5640F409
:1002D000801543F48013A7EB0608101BD64608F2DE
:1002E000FD3873EB050002D308F1010801E0921814
:1002F0005B41B8F1000F03DA00200146BDE8F08D44
:1003000000204FF48011064684460EE0171B73EB65
:10031000050705D3121B63EB050306434CEA010CEA
:1003200049084FEA300092185B4150EA0107EDD1CD
:1003300052EA030012D082EA040083EA050108436E
:1003400005D0101BAB4106D20122002306E000229B
:100350004FF0004302E06FF0010253101AEB060069
:100360004CEB085110EB0A0041EB0B01BDE8F04DDE
:1003700000F057B80EB540F2334102910021CDE9AB
:1003800000110A460B4600F05BF803B000BDC1F354
:100390000A5210B5C1F3130140F2FF3341F480114A
:1003A0009A4201DA002010BD40F233439A42A2F291
:1003B000334203DC524200F012F810BD904010BDF1
:1003C000202A04DB203A00FA02F100207047914015
:1003D000C2F1200320FA03F3194390407047202A0A
:1003E00004DB203A21FA02F00021704721FA02F3DF
:1003F000D040C2F120029140084319467047202A9C
:1004000006DBCB17203A41FA02F043EAE07306E03C
:1004100041FA02F3D040C2F120029140084319464C
:10042000704710B5141E73F1000408DA401C41F146
:10043000000192185B411A4301D120F0010010BD68
:100440002DE9F04D92469B4611B1B1FA81F202E0DE
:10045000B0FA80F220329046FFF7B2FF04460F4612
:1004600040EA0A0041EA0B0153465A46084313D0BA
:10047000114653EA010019D0C8F140025046FFF777
:10048000AEFF05460E46504659464246FFF798FFD6
:10049000084305D0012004E020463946BDE8F08D30
:1004A0000020054346EAE0762C4337430A9863056B
:1004B000E40AA0EB08000022FD0A44EA47540A308F
:1004C00002D500200146E9E7010510196941DDE97F
:1004D000084500196941BDE8F04DA2E730B5041E9A
:1004E00071F1000404DB4FF00044404264EB010171
:1004F000141E73F1000405DB1C464FF0004352420A
:1005000063EB0403994208BF904230BD064C074D8F
:1005100006E0E06840F0010394E8070098471034D3
:10052000AC42F6D3FFF7E6FD60680008806800087B
:10053000F0B5837B03B9F0BD002901DB802900DB26
:10054000F9E7002A01DB402A00DBF4E7438BBBB16B
:10055000838BABB1B0F916308B4205DCB0F91630A5
:10056000448B23448B4200DCE5E7B0F9183093421A
:1005700005DCB0F91830848B2344934200DCDAE7C1
:10058000837B012B1CD1D51702EB5575ED1001EBC8
:10059000C5154668755D1446D61702EB5676F610FB
:1005A000A2EBC6070126BE403543EEB21346D5176F
:1005B00002EB5575ED1001EBC51547687E551AE045
:1005C000D51702EB5575ED1001EBC5154668755D45
:1005D0001446D61702EB5676F610A2EBC607012694
:1005E000BE40B5431346D61702EB5676F61001EB24
:1005F000C6164768BD5500BF9DE700BFFEE77047C0
:1006000070B5044600F010F80648026840681519F5
:1006100040F1000600BF034801684068491BB04133
:10062000F9D370BD1800002010B586B025480078B9
:10063000002844D1012023490870142101A8FFF7A4
:1006400078FD4FF0E020006920F001004FF0E0213C
:10065000086100211C4A1160516001A800F0DCFB18
:100660004FF0E020006940F002004FF0E021086107
:1006700000211648C1774FF47A710298B0FBF1F46B
:10068000B4F1807F09D3E4084FF0E020006920F046
:1006900004004FF0E021086107E04FF0E02000691E
:1006A00040F004004FF0E0210861601E4FF0E021AF
:1006B00048610846006940F00100086100BF06B0CB
:1006C00010BD0000200000201800002000ED00E018
:1006D0002DE9F04F87B005460F4690469946A87B16
:1006E00020B9287B10B907B0BDE8F08F95F80DA0B0
:1006F000012068734846FFF73DFE0022214BCDE9FB
:100700000001FFF7C8FDCDE9020100F019FDCDE9B8
:100710000401FFF73CFE1FFA80FB00242CE00026BA
:1007200025E0E21704EB5272D21006FB0B23119A5C
:10073000D25CE31704EB5373DB10A4EBC30C8023F0
:1007400043FA0CF31A4042B108EB060002B2381922
:1007500001B2284600F0FFFA07E008EB060002B2FB
:10076000381901B22846FFF7E3FE701C06B2109854
:100770008642D6DB601C04B24C45D0DB85F80DA068
:1007800000BFB0E7000020402DE9F04102460025FF
:100790000026002000230024002791F803C00CF05D
:1007A0000F0591F803C00CF0100CBCF1000F03D042
:1007B00091F802C04CEA050591F800C0BCF1000FA9
:1007C00031D0146800202BE04FF0010C0CFA00F33C
:1007D000B1F800C00CEA03069E4220D183004FF01E
:1007E0000F0C0CFA03F7BC4305FA03FC4CEA0404B3
:1007F00091F803C0BCF1280F06D14FF0010C0CFAA0
:1008000000FCC2F814C00AE091F803C0BCF1480F24
:1008100005D14FF0010C0CFA00FCC2F810C0401CCE
:100820000828D1D31460B1F800C0BCF1FF0F34DD4B
:10083000546800202EE000F1080C4FF0010808FA7F
:100840000CF3B1F800C00CEA03069E4221D18300EC
:100850004FF00F0C0CFA03F7BC4305FA03FC4CEA0B
:10086000040491F803C0BCF1280F05D100F1080C75
:1008700008FA0CF8C2F8148091F803C0BCF1480FD4
:1008800007D100F1080C4FF0010808FA0CF8C2F883
:100890001080401C0828CED35460BDE8F081024689
:1008A000002093680B400BB1012000E0002070474E
:1008B0000AB1016100E04161704700BFFEE700BF7F
:1008C000FEE7000008B5034800906946024800F0C2
:1008D000E5F808BD2D1200083C00002038B504469C
:1008E00035492068884204D10121042000F084FAAF
:1008F00019E032492068884204D10121082000F023
:100900007BFA10E02E492068884204D10121102092
:1009100000F072FA07E02B492068884203D10121D8
:10092000202000F069FAA1890122A068FFF7C0FF2A
:10093000A18801222068FFF7BBFF1F49A0688842F9
:1009400004D10121042000F057FA19E01B49A068E6
:10095000884204D10121082000F04EFA10E0184925
:10096000A068884204D10121102000F045FA07E078
:100970001449A068884203D10121202000F03CFAEC
:10098000A088ADF8000014208DF8030002208DF837
:10099000020069462068FFF7F7FEA089ADF8000065
:1009A00014208DF8030002208DF802006946A0682B
:1009B000FFF7EAFE38BD000000080140000C0140CE
:1009C00000100140001401402DE9F04104460E469C
:1009D00017469846A1890122A068FFF769FFA18800
:1009E00001222068FFF764FFA1890022A068FFF7B9
:1009F0005FFF012000F012FC06F0FE01204600F02F
:100A000076FA30B1204600F0B5FA4FF0FF30BDE87D
:100A1000F08100250CE0795D204600F068FA28B1ED
:100A2000204600F0A7FA6FF00100F0E7681C85B2DD
:100A30004545F0DB204600F09DFA0020E7E7000086
:100A400010B5064806490860402088800348886041
:100A5000802088810846FFF741FF10BD000C01404F
:100A60002C000020704710B504464FF48061606888
:100A7000FFF75FFB10BD2DE9FC4104460D4616460D
:100A80001F46CDE90067B4F91220B4F910102B46C7
:100A90002046FFF71DFEBDE8FC81000038B5044686
:100AA0000D462868206040F2014000F0F5FB6060D0
:100AB000606810B96FF0010038BD6068401C60606C
:100AC0004FF480616068FFF734FB00231A46AE21C3
:100AD000204600F004F910B14FF0FF30ECE7802021
:100AE000009001236A46D521204600F0F8F810B1A5
:100AF0004FF0FF30E0E73F20009001236A46A82135
:100B0000204600F0ECF810B14FF0FF30D4E70020A1
:100B1000009001236A46D321204600F0E0F810B18E
:100B20004FF0FF30C8E700231A464021204600F06E
:100B3000D6F810B14FF0FF30BEE71420009001232B
:100B40006A468D21204600F0CAF810B14FF0FF3000
:100B5000B2E70020009001236A462021204600F0E1
:100B6000BEF810B14FF0FF30A6E700231A46A121CE
:100B7000204600F0B4F810B14FF0FF309CE700239E
:100B80001A46C821204600F0AAF810B14FF0FF30F5
:100B900092E71220009001236A46DA21204600F0F5
:100BA0009EF810B14FF0FF3086E7CF200090012370
:100BB0006A468121204600F092F810B14FF0FF30D4
:100BC0007AE7F120009001236A46D921204600F0FF
:100BD00086F810B14FF0FF306EE72020009001231F
:100BE0006A46DB21204600F07AF810B14FF0FF3062
:100BF00062E700231A462E21204600F070F810B15B
:100C00004FF0FF3058E700231A46A421204600F099
:100C100066F810B14FF0FF304EE700231A46A621C8
:100C2000204600F05CF810B14FF0FF3044E700239D
:100C30001A46AF21204600F052F810B14FF0FF30B5
:100C40003AE70120607320730020A0732082608245
:100C5000A082E08320846084A0840248A0600020F9
:100C60002AE70000CC64000838B5044600208DF85F
:100C7000000001236A462021204600F030F810B120
:100C80004FF0FF3038BD00208DF800007F208DF838
:100C9000010002236A462121204600F020F810B10D
:100CA0004FF0FF30EEE700208DF8000007208DF8B0
:100CB000010002236A462221204600F010F810B1FC
:100CC0004FF0FF30DEE74FF480622046616800F0AD
:100CD00027F810B14FF0FF30D4E70020D2E72DE91C
:100CE000FC4105460E461746984600208DF8000048
:100CF0008DF80160002405E0395DA01C0DF800109E
:100D0000601CC4B24445F7DBA21C694678202B68FE
:100D1000984718B14FF0FF30BDE8FC810020FBE799
:100D20002DE9F04105460C461646002714F8018CC3
:100D3000402004F8010C701C82B2611E78202B68E0
:100D4000984700B17F1E04F8018C3846BDE8F08159
:100D50000182428270472DE9FC5F04468A46934631
:100D6000207B08B9BDE8FC9F607B00B9FAE7607B97
:100D700000EBD0714910A0EB410139B1607B00EB71
:100D8000D0714D102E462F46A8460CE0607B00EB3C
:100D9000D0714D102E462F46A846A8F101001FFA2B
:100DA00080F8781E87B2A07B0190207BA073AAEB0D
:100DB00008000FFA80F916E0ABEB070000B20090D4
:100DC00008E049462046009AFFF7B2FB0098401C15
:100DD00000B200900BEB060100988142F1DA09F1B4
:100DE00001000FFA80F90AEB05004845E4DA0198A2
:100DF000A07300BFB6E7704729B1064A9269024363
:100E0000044B9A6104E0034A92698243014B9A6160
:100E1000704700000010024030B50021002200247D
:100E200000232D4D6D6805F00C0121B1042905D07A
:100E3000082923D105E0294D056022E0274D0560F2
:100E40001FE0254D6D6805F47012234D6D6805F4A3
:100E50008034022505EB92421CB9214D55430560B3
:100E60000BE01D4D6D6805F400351DB11C4D55435B
:100E7000056002E0194D5543056002E0174D05601D
:100E800000BF00BF144D6D6805F0F0010909154D54
:100E90006B5C0568DD4045600F4D6D6805F4E061F1
:100EA000090A104D6B5C4568DD4085600A4D6D6830
:100EB00005F46051C90A0B4D6B5C4568DD40C560A7
:100EC000054D6D6805F44041890B074D6B5CC568A5
:100ED000B5FBF3F5056130BD0010024000127A0049
:100EE00000093D000000002010000020704770B590
:100EF00004460E4607251DE0A18800222068FFF762
:100F0000D7FC0123AB4033400BB1012300E00023A9
:100F10001A46A189A068FFF7CBFC022000F07EF9F9
:100F2000A18801222068FFF7C3FC022000F076F9B7
:100F3000681E45B2002DDFDAA18800222068FFF785
:100F4000B7FCA1890122A068FFF7B2FC022000F0E3
:100F500065F9A18801222068FFF7AAFC022000F0B1
:100F60005DF9A189A068FFF79AFC012800D170BD46
:100F70000020FCE710B50446A18800222068FFF796
:100F800097FC012000F04AF9A1890022A068FFF730
:100F90008FFC012000F042F9A18801222068FFF7B0
:100FA00087FC012000F03AF9A1890122A068FFF72F
:100FB0007FFC012000F032F910BD10B500F002F8FE
:100FC00010BD00000CB5002001900090334800686F
:100FD00040F480303149086000BF3048006800F4B8
:100FE000003000900198401C0190009818B90198B9
:100FF000B0F5A06FF1D12948006800F4003010B1BD
:101000000120009001E0002000900098012843D1C9
:101010002348006840F01000214908600846006835
:1010200020F0070008600846006840F002000860F1
:101030001A484068194948600846406848600846B0
:10104000406840F4806048600846406820F47C10A6
:1010500048600846406840F4E81048600846006868
:1010600040F08070086000BF0C48006800F000701D
:101070000028F9D00948406820F00300074948607B
:101080000846406840F00200486000BF03484068DE
:1010900000F00C000828F9D10CBD0000001002403F
:1010A000002002400448036840685A1C40F10000D8
:1010B00001490A60486070471800002010B51348C5
:1010C000006840F001001149086008464068104976
:1010D00008400E494860084600680E4908400B4920
:1010E00008600846006820F48020086008464068D0
:1010F00020F4FE0048604FF41F008860FFF75DFF9A
:101100004FF000600449086010BD0000001002406C
:101110000000FFF8FFFFF6FE08ED00E000BFFEE76D
:1011200002E008C8121F08C1002AFAD170477047B0
:10113000002001E001C1121F002AFBD1704700000E
:101140002DE9F041C1F30A52A2F2FF362F4A304B8B
:101150000D460446142E2FDA002E12DAFEF7F4FFA5
:1011600000221346FFF7BAF94CD2002DBCBF4FF056
:101170000045002446DB55EA040018BF254D19D16F
:1011800040E0DFF894C02CFA06F705EA070C5CEAA9
:10119000040C08BFBDE8F081FEF7D6FF002213461D
:1011A000FFF79CF92ED2002D03DD4FF48010F040A4
:1011B0000544BD43002425E0332EC8BFBDE8F081BF
:1011C000A6F1140C4FF0FF3727FA0CF73C4208BF8A
:1011D000BDE8F081FFF75CF800221346FFF77EF9C7
:1011E00010D2002D0DDD142E08BF6D1C09D0C6F1E4
:1011F0003400012101FA00F02044A04238BF6D1CE8
:101200000446BC4329462046BDE8F0819C75008811
:101210003CE4377E0000F03FFFFF0F00002100E0BC
:10122000491CC2008A42FBD87047000070B50446D2
:101230000D46164633462A4621460248FFF7C4FBB0
:1012400070BD00002C000020FFF7FAFBFFF73AFB0F
:101250001DE00F48FFF707FC002220210C48FFF794
:1012600077FD002411E00A48FFF7FDFB094800EB79
:101270004423402211460648FFF7FDFB0448FFF7D0
:10128000F3FC0A20FFF7BCF9641C1E2CEBDBE0E743
:101290003C000020C0140008F0B50B30154D20F0C4
:1012A00007010024144A0FE003688B420BD38B42E2
:1012B00005D95E1A43184768C3E9006700E0436830
:1012C000136002C004E0021D10680028ECD1204623
:1012D000002802D1286808B10020F0BD064A07485E
:1012E0001060074A121A22F00702C0E90024012008
:1012F0002860D7E728000020240000206C00002090
:101300006810002000060000C60018C60018C400BF
:1013100018C40018C44018FFC01FFC00FCCC001803
:10132000CC0018CC0018FC0018C0001840001800B1
:10133000001801803FFF800618000718000E3000DB
:101340000C30401C7FE01840C030C080788D00D940
:101350000C00184C00184D8018CCC0198CE0198C6A
:1013600060188C00184C00183C000818000C008015
:101370000C03C00C7DC00C0380190300198E001FE4
:101380008600FB06005307E033FE002606001E061B
:10139000000F86001F8600188600307E00401C006B
:1013A000800C00000E001FFE0018CE001BEC000891
:1013B000CC000FFC0009C00003F000061C000C0F5D
:1013C000001E37C06633E08630000630000C300067
:1013D0000C3000183000303000000000164E0000C5
:1013E000604F00007D5900004C7500004465000806
:1013F000164E0000DE030000160000000000000092
:101400000000000000000000120011000200FFFFB9
:101410003300000004130008F0640008604F00006F
:10142000DE030000160000000000000000000000C5
:1014300000000000130012000100FDFF3600000054
:1014400037130008546500087D590000B1030000FF
:101450001500000000000000000000000000000077
:10146000130012000100FDFF360000006D1300089C
:101470004C6500084C750000DE03000016000000FB
:101480000000000000000000000000001300120037
:101490000200FCFF36000000A313000840650008AE
:1014A000F8640008000000001000640064001800E8
:1014B0001D00FFFFF8FF0600DC130008EC13000816
:1014C000000000000000000000000000000000001C
:1014D000000000000000000000003C0000000000D0
:1014E0000000FE00000000000001E6000000000017
:1014F0000001C700000FC00000038300003FC000D0
:10150000000703FFC0F8E000000603FFFFE0E00073
:10151000000E0001FF80E000000C00000000E00071
:10152000001C00000000C000003800000000C000E7
:10153000007000000000C00001E000000000E000BA
:1015400003C0000000006000078008000000700079
:101550000F001C00000038000E001C0018001800CE
:101560001C001C001C001C0000001C003C000E00A5
:1015700000001C803800060000001FF03800070043
:101580000E001F70380003801C007C38380001807A
:101590001800F018380001C03801C0703800008011
:1015A000000380F010000000018703C00000060067
:1015B0000386030030000700070E0600FE0003004C
:1015C000071C0E01C700000007F80C018300300063
:1015D00001F8180187003800003818019FCFD800A3
:1015E00000303001BD9FF80000307001801FF00016
:1015F00000306000C018000000306000F0180000EB
:10160000003000007C300000003000001C30000082
:10161000003000000030000000300000003000000A
:1016200000300000003000000030000000300000FA
:10163000007000000030000000700000003000006A
:1016400000300000003000000030000000300000DA
:1016500000300000003000000030000000180000E2
:10166000003000000018000000300000001E018063
:1016700000600000001FFF8000600000000FFF00FE
:1016800000600000000C0070006007FE000E00709B
:1016900000C07FFFF00F000000C1FC03FF87F000D7
:1016A00000C7C0000FEFFFC000FE000000FC1FC01D
:1016B000007800000018000000000000000000009A
:1016C000000000000000000000000000000000001A
:1016D000000000000000000000000E0000000000FC
:1016E00000003F000000000000007B8000000000C0
:1016F0000000E1800003E0000000C1C0001FF00016
:101700000001C0FFC03E3000000181FFFFF8300043
:1017100000030007FFE030000007000003803000F6
:10172000000E000000003000001E0000000030002D
:10173000003C000000007000007800000000700015
:1017400000E000000000380001C0000000001800A8
:101750000380070000001C00070007000E000E00B9
:10176000060007000E00060004000E000E00070031
:1017700000000E000E00038000000FF80E00018034
:1017800003000FFC0E0001C007001F0E0E0000E05A
:101790000E003C060E0000600C00700E0E000020D3
:1017A0000000E03C0C00000000C1C0780000018097
:1017B00000C380E1F000018001C30183F80001C093
:1017C000018703871E00000001FE070607000C00CA
:1017D00000FC060707800C00001C0E0383F18E003E
:1017E00000180C01C0F3FE0000181800E007FC0010
:1017F00000181800700600000018300038060000BD
:10180000001800001E060000001800000F8C0000E9
:1018100000380000038C000000100000000C0000E5
:1018200000100000000C000000380000001800004C
:101830000018000000180000001800000018000048
:101840000018000000180000001800000018000038
:10185000000C000000180000000C0000001C00003C
:10186000000C0000000E0070000C0000000FFFF0E4
:10187000001800000007FFC8001800000007001C47
:10188000003000000003801C006000000001C00068
:1018900000601FFFC000FC180041FFFFFF80FFF841
:1018A0000067C0001FF0C7F0007F000000FFC0000D
:1018B000007C0000000F800000000000000000001D
:1018C0000000000000000000000000000000000018
:1018D000000000000000000000000E0000000000FA
:1018E00000003F000000000000007B8000000000BE
:1018F0000000E1800003E0000000C1C0001FF00014
:101900000001C0FFC03E3000000181FFFFF8300041
:1019100000030007FFE030000007000001803000F6
:10192000000E000000003000001E0000000030002B
:10193000003C000000007000007800000000700013
:1019400000E000000000380001E000000000180086
:101950000380070000001C00070007000E000E00B7
:10196000060007000E00060004000E000E0007002F
:1019700000000E000E00038000000FF80E00018032
:1019800003000FFC0E0001C007001F0E0E0000E058
:101990000E003C060E0000600C00700E0E00006091
:1019A0000000E03C0C00000000C1C0F80000018015
:1019B00000C380E00000018001C301801F0001C05E
:1019C000018703807F80000001FE070061C00C00DA
:1019D00000FC060060C00C00001C0E0063F10E004D
:1019E00000180C006FF3FE00001818006603FC00DE
:1019F00000181800700600000018300038060000BB
:101A0000001800001E060000001800000F8C0000E7
:101A100000380000030C000000100000000C000063
:101A200000100000000C000000380000001800004A
:101A30000018000000180000001800000018000046
:101A40000018000000180000001800000018000036
:101A5000000C000000180400000C0000001C0E40E8
:101A6000000C0000000C0EE0000C0000000CFC60FC
:101A7000001800000006F8600018000000030000D5
:101A80000030000000038018006000000001C070FA
:101A900000601FFFC000FFF00041FFFFFF80FFC09C
:101AA0000067C0001FF0C000007F000000FFC00002
:101AB000007C0000000F800000000000000000001B
:101AC0000000000000000000000000000000000016
:101AD000000000000000000000001C0000000000EA
:101AE00000003E0000000000000077000003C0007E
:101AF0000000E380000FE0000000C1C0003E600075
:101B00000001C1FFE0786000000180FFFFE070008D
:101B100000038000FFC03000000300000000300020
:101B20000007000000003000000E00000000300040
:101B3000001C0000000030000038000000003800E9
:101B4000007000000000180000E0000000001C0011
:101B500001C0038000000E00038003800700060020
:101B600007000380070007000E00038007000380C2
:101B70000E000380070001C0000003BF070000C083
:101B8000010003FF870000E0038003E1870000708D
:101B900003000780C700002007000E01C7000000F7
:101BA00006001C07860001800040381F0FC001C0DE
:101BB0000060703C1FE000C000E0E0701870004062
:101BC00000E0C06018380C0000FFC0E018180E00DC
:101BD000007F81C00C1C0600000381800E0DFE00FA
:101BE000000303800601FE000003030006019C00C1
:101BF000000606000703800000060600030300003D
:101C000000060000000300000006000000030000C2
:101C100000060000000300000006000000030000B2
:101C200000060000000300000006000000030000A2
:101C30000006000000030000000600000003000092
:101C40000006000000030000000600000003000082
:101C50000003000000019800000300000001DC0008
:101C6000000300000001CC000003000000018C0014
:101C7000000300000001C080000300000000C1C09C
:101C8000000300000000C380000307FFF000FF0016
:101C900000031FE7FF00FE000003FC001FE0E00060
:101CA0000001F00001F8C0000000C000003FC000CB
:101CB000000000000007800000000000000000009D
:101CC0000000000000000000000000000000000014
:101CD00000000000000000000001E0000000000023
:101CE0000003F800001E000000033C00003F00005D
:101CF00000030F00007380000003078000E18000F4
:101D0000000301FFFFC1C000000300FFFFC0C000CF
:101D10000003000001C0E0000007000000006000B8
:101D20000007000000007000000E000000003000FE
:101D3000001C0000000038000038000000001C00FB
:101D40000070000000000E000070000000000E0097
:101D500000E000E000C0070001C000E001C0038017
:101D6000038000E001C001C0070000E001C000E006
:101D7000060000E001C000E0060000E0C1C0006015
:101D8000000000E7F1C00000018000FF39C0000042
:101D9000038000F818FE0080030000F018FF00C068
:101DA000020001C038C380E000000381F0C1C060C0
:101DB00000600703E0C0C06000E0060700E0C60066
:101DC00000F00E060060C60000FF9C0E0060E600FA
:101DD000001F980C0070E7000001B0180070FF00B1
:101DE000000180180020FE00000180300000C000CB
:101DF000000180700000C000000180600000C00091
:101E0000000180600000C000000180000000C000F0
:101E1000000180000000C000000180000000E00020
:101E200000018000000060000000C00000006000B1
:101E30000000C000000060000000C0000000600062
:101E40000000C000000060000000600000006000B2
:101E500000006000000060000000600000007000F2
:101E60000000300000007000000030000000300072
:101E70000000380000007000000018000000600042
:101E800000001C1FF800600000000C3FFF80600095
:101E900000000FF007E06000000007C0007860005D
:101EA00000000000001EC00000000000000FC00085
:101EB000000000000003800000000000000000009F
:101EC0000000000000000000000000000000000012
:101ED000000000000000000000007800000000008A
:101EE0000000FC00000300000000CE00000F800096
:101EF00000018700001FC000000183800038C0007F
:101F0000000381FFFFF06000000300FFFFE06000BE
:101F1000000300000000700000030000000030001B
:101F20000007000000003000000E0000000030003C
:101F3000001C0000000030000038000000003800E5
:101F40000070000000001C0000E0000000000E0017
:101F500001C001C001000600018001C0038007002C
:101F6000038001C003800380070001C0038001C01B
:101F70000E0001C0038000E0000001C1838000600A
:101F8000000001CFE3800030038001FEE380000009
:101F9000030001F073BC0000070001C031FF0180A5
:101FA00002000380E1E701C000000703E18300E0D5
:101FB00000600E078183006000E01C0E0307000034
:101FC00000F0181C030E0E0000FF3018030E060070
:101FD000001FB03803060600000360700306FF0010
:101FE000000300600180FF00000300E00180C000EA
:101FF000000300C000018000000301C00001800058
:102000000003008000018000000300000001800048
:1020100000030000000180000003000000018000B8
:1020200000018000000180000001800000018000AC
:10203000000180000001800000018000000180009C
:102040000001800000018000000180000000C0004D
:102050000000C0000000D0000000C0000000D80058
:102060000000C0000000D8000000C0000000D80040
:10207000000040000000F800000060000000F800D0
:102080000000E03FE0007000000061FFFC00600025
:10209000000063C03FC0400000007F0003F040002C
:1020A00000003C00003CC00000000000000FC00029
:1020B000000000000003800000000000000000009D
:1020C0000000000000000000000000000000000010
:1020D00000000000000000000001E000000000001F
:1020E0000003F800001E000000033C00003F000059
:1020F00000030F00007380000003078000E18000F0
:10210000000301FFFFC1C000000300FFFFC0C000CB
:102110000003000001C0E0000007000000006000B4
:102120000007000000007000000E000000003000FA
:10213000001C0000000038000038000000001C00F7
:102140000070000000000E000070000000000E0093
:1021500000E000E000C0070001C000E001C0038013
:10216000038000E001C001C0070000E001C000C022
:10217000060000E001C000E0060000E0C1C0006011
:10218000000000E7F1C00000018000FF39C000003E
:10219000038000F818FE0080030000F018FF00C064
:1021A000020001C038C380E000000381F0C1C060BC
:1021B00000600703E0C0C06000E0060700E0C60062
:1021C00000F00E060060C60000FF9C0E0060E600F6
:1021D000001F980C0070E7000001B0180070FF00AD
:1021E000000180180020FE00000180300000C000C7
:1021F000000180700000C000000180600000C0008D
:10220000000180600000C000000180000000C000EC
:10221000000180000000C000000180000000E0001C
:1022200000018000000060000000C00000006000AD
:102230000000C000000060000000C000000060005E
:102240000000C000000060000000600000006000AE
:1022500000006000000060000000600000007000EE
:10226000000030000000700000003000000070002E
:10227000000038000000700000001800000060003E
:1022800000001C1FF800600000000C3FFF80600091
:1022900000000FF007E06000000007C00078600059
:1022A00000000000001EC00000000000000FC00081
:1022B000000000000003800000000000000000009B
:1022C000000000000000000000000000000000000E
:1022D00000000000000000000000000000000000FE
:1022E00000000000000000000001E000003E0000CF
:1022F0000003FC00007F00000003BE0000638000BC
:102300000003070000E1C000000303FFFFC0C0009E
:10231000000300FFFFC0E0000003000000006000B9
:102320000003000000007000000300000000300007
:1023300000070000000038000006000000001C003C
:10234000000E000000000E00001C000000000E0047
:1023500000380000006007000070007000E003809B
:1023600000E0007000F001C000C0007000F000E06C
:1023700001C0007000F00070038000700070003039
:1023800007000070F070000000000073F87000009B
:102390000000007F9C7000C000C0007C0C61F8E071
:1023A00001C000700C03FC70018000E03C070C30A1
:1023B000010001C0F8060C1000300381E0060F0098
:1023C00000300703800C1F00007F8E03000C3300D9
:1023D000003FCC06001C3B80001FDC0E00183F8035
:1023E0000000C81C00003E000000C01800003000C3
:1023F0000000C038000070000000C0300000600025
:102400000000C060000060000000C000000060002C
:102410000000C000000060000000C00000003000AC
:102420000000C000000030000000C00000003000CC
:102430000000C0000000300000006000000030001C
:10244000000060000000180000006000000018009C
:1024500000007000000018000000300000001800AC
:1024600000003000000018000000180000001000FC
:1024700000001C000000300000000C0000003000D4
:10248000000006000000300000000701FF003000DF
:1024900000000383FFE06000000001C700F8600057
:1024A000000000FE003EC0000000003C000FC00025
:1024B0000000000000038000000000000000000099
:1024C000000000000000000000000000000000000C
:1024D00000000000000000000000000000000000FC
:1024E000000000000000000000000000000C0000E0
:1024F0000000E000003E00000001F800007F000046
:102500000003BE00006380000003070000E1C0007C
:10251000000303FFFFE0E000000300FFFFC06000D6
:102520000003000000007000000300000000300005
:1025300000030000000038000007000000001C003D
:102540000007000000000E00000E00000000070061
:10255000001C00000000038000380000003001C0B3
:1025600000300038003001C000700038003800E052
:1025700000E000380038007001C00038003800303A
:10258000018000380038000003800039FC3800006A
:102590000300003FFE3800600000003F063F8060FF
:1025A00000C0003C061FE07001C00070061FF0383C
:1025B000018000E03E183010000001C0F8183B0018
:1025C00000180380E01C1B8000380301800C198078
:1025D0000038060380061F80003FEE0700061F80BC
:1025E000001FEC0600001C000000C00E00001800D8
:1025F0000000C01C000018000000C01800003800D7
:102600000000C038000030000000C0300000300082
:102610000000C000000030000000C00000003000DA
:102620000000E0000000300000006000000010002A
:1026300000006000000018000000600000001800AA
:1026400000006000000018000000300000001800CA
:1026500000003000000018000000380000003000CA
:10266000000018000000300000001C0000003000D6
:1026700000000C00000030000000060000003000E8
:102680000000070000003000000003800000600030
:10269000000001C07FC06000000000E0FFF86000A3
:1026A00000000071C03EE0000000003F800FC0004D
:1026B0000000000F80038000000000000000000008
:1026C000000000000000000000000000000000000A
:1026D00000000000000000000000000000000000FA
:1026E00000000000000000000000000000000000EA
:1026F00000000000000C00000001E000003F0000AE
:102700000003F800003F800000039E000071C0003D
:102710000003078000E1C000000303FFFFE0E000CA
:10272000000300FFFFE060000003000000007000F5
:10273000000300000000300000030000000038002B
:102740000007000000001C000006000000000E0052
:10275000000E000000000700001C000000000380C5
:1027600000380018003001C000700038003800E068
:1027700000E000380038007000E000380038003019
:1027800001C00038003800100380003838380000DD
:1027900003000019FC3800000000001FCE38006064
:1027A0000060001E06387C7000E0003C0601FE3828
:1027B00001C000700E01C738008000E03C038308B0
:1027C000001801C0F803078000180380E0030F80A1
:1027D0000038030180030DC0003FE60380060DC0F2
:1027E000001FE60700060FC00000640600000F800F
:1027F0000000600E00000C000000601C00001C00C7
:1028000000006018000018000000601800001800A8
:1028100000006000000018000000600000001800C8
:1028200000006000000018000000600000001800B8
:1028300000006000000018000000600000001800A8
:102840000000300000001800000030000000100000
:1028500000003000000030000000180000003000D0
:10286000000018000000300000000C0000003000E4
:1028700000000C00000030000000060000007000A6
:1028800000000700000060000000038000006000FE
:10289000000001C07FC06000000000E0FFF86000A1
:1028A00000000071C03EE0000000003F800FC0004B
:1028B0000000000F80038000000000000000000006
:1028C0000000000000000000000000000000000008
:1028D00000000000000000000000000000000000F8
:1028E00000000000000000000000000000000000E8
:1028F00000000000000C00000001E000003F0000AC
:102900000003F800003F800000039E000071C0003B
:102910000003078000E1C000000303FFFFE0E000C8
:10292000000300FFFFE060000003002000007000D3
:102930000003000000003000000300000000380029
:102940000007000000001C000006000000000E0050
:10295000000E000000000700001C000000000380C3
:1029600000380018003001C000700038003800E066
:1029700000E000380038007000E00038003800380F
:1029800001C000380038001003800038FC38000017
:102990000300001FFE3800000000001F86380060A2
:1029A0000060003E033FC07000E00038071FE038C1
:1029B00001C000701E187038008000E07C183808D4
:1029C000001801C0F018198000180381C01C19807C
:1029D00000380301800E19C0003FE70380061DC0C8
:1029E000001FE60700061FC00000660600001F006B
:1029F0000000600E000018000000601C00001800BD
:102A000000006018000018000000601800001800A6
:102A100000006000000018000000600000001800C6
:102A200000006000000018000000600000001800B6
:102A300000006000000018000000600000001800A6
:102A400000003000000018000000300000001000FE
:102A500000003000000030000000180000003000CE
:102A6000000018000000300000000C0000003000E2
:102A700000000C00000030000000060000007000A4
:102A800000000700000060000000038000006000FC
:102A9000000001C07FC06000000000E0FFF860009F
:102AA00000000071C03EE0000000003F800FC00049
:102AB0000000000F80038000000000000000000004
:102AC0000000000000000000000000000000000006
:102AD00000000000000000000000000000000000F6
:102AE00000000000003C000000018000007E0000AB
:102AF0000007F00000E600000007FC0000C700002F
:102B000000061E0007C38000000E07FFFF81800043
:102B1000000601FFFF01C000000600000000C00029
:102B2000000600000000E000000600000000700049
:102B30000006000000003800000E000000001C002D
:102B4000000C000000000E00001C00000000070048
:102B5000003800000060038000700070007001C049
:102B600000600070007000E000E000700070006025
:102B700001C0007000700020038000700070000031
:102B800003000071F87000000700007FF87000C0BB
:102B90000600007E0C7000E0008000780C31FC60C4
:102BA00001C000701C03FC70018000E07807063053
:102BB000038001C0F006070000000381C0060F007B
:102BC0000030030380061F8000700603000E1F8084
:102BD000007F8E06000C1F80007FCC0E00081E00B8
:102BE000003FCC0C000018000000C01C00001800C2
:102BF0000000C018000018000000C03800003000BD
:102C00000000C030000030000000C00000003000B4
:102C10000000C000000030000000C00000003000D4
:102C20000000600000003000000060000000300084
:102C30000000600000003000000060000000300074
:102C40000000600000003000000070000000300054
:102C50000000300000003000000030000000600084
:102C600000003800000060000001F8000000600073
:102C70000001FC000000600000000E000000600089
:102C800000008700F80060000001C703FF806000BB
:102C900000000F8703E0600000003DE600F86000E0
:102CA0000000307C001EE000000000380007C0007B
:102CB0000000000000038000000000000000000091
:102CC0000000000000000000000000000000000004
:102CD00000000000000000000000000000000000F4
:102CE00000000000003C000000018000007E0000A9
:102CF0000007F00000E600000007FC0000C700002D
:102D000000061E0007C38000000E07FFFF81800041
:102D1000000601FFFF01C000000600000000C00027
:102D2000000600000000E000000600000000700047
:102D30000006000000003800000E000000001C002B
:102D4000000C000000000E00001C00000000070046
:102D5000003800000060038000700070007001C047
:102D600000600070007000E000E000700070006023
:102D700001C000700070002003800070007000002F
:102D800003000071F87000000700007FF87000C0B9
:102D90000600007E1C7000E0000000780C31FC6032
:102DA00001C000701C03FC70018000E07807063051
:102DB000038001C0F006070000000381C0060F0079
:102DC0000030030380061F8000700603000E1F8082
:102DD000007F8E06000C1F80007FCC0E00081E00B6
:102DE000003FCC0C000018000000C01C00001800C0
:102DF0000000C018000018000000C03800003000BB
:102E00000000C030000030000000C00000003000B2
:102E10000000C000000030000000C00000003000D2
:102E20000000600000003000000060000000300082
:102E30000000600000003000000060000000300072
:102E40000000600000003000000070000000300052
:102E50000000300000003000000030000000600082
:102E600000003800000060000001F8000000600071
:102E70000001FC000000600000000E000000600087
:102E800000008700F80060000001C703FF806000B9
:102E900000000F8703E0600000003DE600F86000DE
:102EA0000000387C001EC000000000380007C00091
:102EB000000000000003800000000000000000008F
:102EC0000000000000000000000000000000000002
:102ED0000000000000000000000000000070000082
:102EE0000000000000F800000007800001DC000086
:102EF0000007F000018E0000000FF800030700003B
:102F0000000C1E1FFF038000000C0FFFFF0180005C
:102F1000000C03FE0001C000000C00000000E000F7
:102F2000000C000000007000000C000000007000A9
:102F3000001C0000000038000018000000001C0009
:102F40000038000000000E000070000000C0070004
:102F50000060006000E0038000E000E000E001C0ED
:102F600001C000E000E000E0038000E000E000605D
:102F7000030000E040E00000070000F7F0E0000080
:102F80000E0000FFB8E001C00C00007C18E001C09A
:102F9000000000F0187F00E0010000E0387F806052
:102FA000038001C0F8E1C02003000381E0C0C60037
:102FB000030007038060E70000000E070070630055
:102FC00000600C060030630000601C0C00307F00C5
:102FD00000FFD81C00107E00007FD81800006000A1
:102FE0000000C038000060000000C0300000600039
:102FF0000000C070000060000000C06000006000C1
:103000000000C000000060000000C0000000600080
:103010000000C000000060000000C0000000600070
:103020000000600000006000000060000000600020
:103030000000600000006000000060000000600010
:1030400000006000000060000000700000006000F0
:103050000000300000006000000030000000600050
:103060000000700000006000000FF0000000600031
:10307000001FF80000006000000E18000000600053
:103080000000181FFC00600000381C3FFF8060003B
:1030900000383EF007E060000000FFC00078C0008C
:1030A0000007E000001EC00000078000000FC00005
:1030B000000000000003800000000000000000008D
:1030C0000000000000000000000000000000000000
:1030D00000000000000000000000000001F00000FF
:1030E0000000000001F80000000C0000039C00003C
:1030F000001F8000070E0000003FE0000E070000E8
:103100000038F83FFF03000000303FFFFE0380005F
:1031100000300FF00001C000003000000000C000CF
:10312000003800000000E0000038000000007000DF
:1031300000380000000038000030000000001C00D3
:103140000060000000000E0000E0000001800700A9
:1031500001C000C001C00380018001C001C001C0E6
:10316000038001C001C001C0070001C001C000C050
:10317000060001C3C1C000000E0000EFE1C0000066
:103180001C0000FC71C00180180000F030C00180FC
:10319000100001E030C7E1C002000380E00FF0E062
:1031A00007000703E01C304006000E0780183C00B3
:1031B0000E000C0600183E0000001C0C00306600DB
:1031C00000C0181C0030E60000C030180030FF00BE
:1031D00001FFB03000207E0000FF80700000600022
:1031E00000F180600000600000018060000060006D
:1031F000000180C00000600000008040000060000E
:103200000000C000000060000000C000000060007E
:103210000000C000000060000000C000000060006E
:103220000000C000000060000000C000000060005E
:103230000000C000000060000000C000000060004E
:103240000000C000000060000000C000000060003E
:103250000000C000000060000000C000000060002E
:103260000000E000000060000003E00000006000DB
:1032700000FFE0000000600000FE60000000600051
:103280000000603FFC006000038070FFFF80600072
:103290000380F9C007E060000007FF800078C000ED
:1032A000007F8E00001EC00000FC0000000FC00068
:1032B000000000000003800000000000000000008B
:1032C00000000000000000000000000000000000FE
:1032D00000000000000000000000000003C000002B
:1032E0000000000007E00000000000000E70000079
:1032F000007E00000C380000007F80001C1C0000D5
:1033000000C3E1FFFC0C000000C0FFFFFC0E00004A
:1033100000C03FE00007000000E0000000030000E4
:103320000060000000038000006000000001C00099
:1033300000E000000000E00000E00000000070007D
:1033400001C00000000038000180000006001C00E1
:103350000380030007000E000700070007000700B6
:1033600006000780070003800E00078007000100A9
:103370000C000787078000001C0007BF8780000043
:10338000380007F9C7800600300007E0E780070033
:103390003000078067F0038000000F00C3FC01804D
:1033A0000C001C07C71C00800C001C0F060E180028
:1033B0000C00381C06071C000800703803030C00C2
:1033C0000180607001831C000180E0600183FC00CB
:1033D0000380C0E00181F00003FF80C00181800014
:1033E00001FF018001818000000303800001800053
:1033F00000038300000180000001830000018000C1
:1034000000018000000180000001800000018000B8
:10341000000180000001C000000180000001C00028
:103420000001800000008000000180000001800099
:103430000001800000018000000080000001800089
:103440000000C00000018000000180000001800039
:103450000001800000018000000180000001800068
:103460000001800000018000000380000001800056
:103470000FFF00000000C0000FFF00000000C000B0
:1034800000070007C000C000380600FFFC00C000B5
:10349000380607F87F80C000001E7F8003F0C00060
:1034A00007FFF800007CC0000FFB8000001FC00079
:1034B0000E0000000003800000000000000000007B
:1034C00000000000000000000000000000000000FC
:1034D0000000000000000000000000000F000000DD
:1034E000000000001F8000000000000039C0000044
:1034F00000FC000030E0000001FF000070700000E0
:103500000187C1FFF03000000181FFFFF0380000AB
:1035100001807FE00018000001800000001C000016
:1035200001C00000000E000001C000000007000004
:1035300001C000000003800001C000000001C000C5
:10354000038000000000E0000300000004007000A1
:10355000070000000E0038000E000E000E001C00D8
:103560000C000E000E000E001C000E000E000000ED
:1035700018000E000E00000038000E1F0E000000A4
:1035800070000E7F8E001C00600007F18E001C0092
:10359000E0000781C61E0E0000000F01807F0700BB
:1035A00000001C0780F780003800380F00C1E000E1
:1035B0003000701C00C1F000300060380183300022
:1035C0000000E070018770000601C0E00187F00094
:1035D000060180C00307C00006F9818003060000D1
:1035E00007FC03800206000007FE03000003000042
:1035F00000060700000300000006060000030000AC
:1036000000060000000300000006000000030000A8
:10361000000300000003000000030000000300009E
:10362000000300000003000000030000000300008E
:10363000000300000003000000030000000300007E
:10364000000300000003000000030000000300006E
:103650000006000000030000000600000003000058
:103660000006000000030000601E000000030000D0
:103670007FFC0000000300003FFC00000001800010
:10368000801C0000000180008018003FF8018000CD
:10369000003807FFFF01800003F87FE00FE1C00062
:1036A000FFFFFC0000F9C000FE0FC000003F8000DB
:1036B00000060000000F8000000000000000000075
:1036C00000000000000000000000000000000000FA
:1036D0000000000000000000000000001C000000CE
:1036E000000000003F0000000000000077800000A4
:1036F00001F0000061C0000003FC0000E0C0000019
:10370000031F00FFC0E000000307FFFFE0700000A0
:103710000301FFFC003000000300400000380000FF
:1037200003000000001C000003000000001E000059
:1037300003800000000F000003000000000780006D
:10374000070000000001C000060000000000E000CB
:103750000E000000380070001C001C00380038000B
:1037600018001C003800180038001C001C0008005D
:1037700070001C001C00000060001C3E1C000000CB
:10378000E0001CFF1C003000C0001FE39C0038005C
:1037900080001F819C001C0080001E0188000C001E
:1037A00000003C038FC000006000701F1FF0C000CD
:1037B0006000E03C1870C000E000E0701838E000E5
:1037C0000001C0E0181C60000C0381C00C0FE00079
:1037D0000C038180060FC0001C010380060C000052
:1037E0001FF00700060C00000FF00600020C00009E
:1037F00000180E000006000000180C000006000073
:103800000018080000060000000C00000006000080
:10381000000C000000070000000C00000003000086
:10382000000C000000070000000600000007000078
:103830000006000000060000000600000006000070
:103840000006000000060000000600000006000060
:1038500000060000000C0000000E0000000C00003C
:10386000801C0000000C0000FFFC0000000C0000A9
:10387000FFF8000000060000003000000006000015
:10388000007000000003000000E000000001800064
:103890000FC000FFFF018000FFC07FFFFFE0C000FE
:1038A000F8C3FE0000F9C00000FFC000003F800028
:1038B000007C0000000F80000000000000000000FD
:1038C00000000000000000000000000000000000F8
:1038D0000000000000000000000000001C000000CC
:1038E000000000003F0000000000000077800000A2
:1038F00001F0000061C0000003FC0000E0C0000017
:10390000031F00FFC0E000000307FFFFE07000009E
:103910000301FFF0003000000300700000380000D9
:1039200003000000001C000003000000001E000057
:1039300003800000000F000003000000000780006B
:10394000070000000001C000060000000000E000C9
:103950000E000000380070001C001C0038007800C9
:1039600018001C003800180038001C001C0008005B
:1039700070001C001C00000060001C3E1C000000C9
:10398000E0001CFF1C003000C0001FE39C0038005A
:1039900080001F019C001C0080001E0188000C009C
:1039A00000003C038FC000006000701F1FF0C000CB
:1039B0006000E03C1870C000E000C0701838E00003
:1039C0000001C0E0181C60000C0381C00C0FE00077
:1039D0000C038180060FC0001C010380060C000050
:1039E0001FF00700060C00000FF00600020C00009C
:1039F00000180E000006000000180C000006000071
:103A00000018080000060000000C0000000600007E
:103A1000000C000000070000000C00000003000084
:103A2000000C000000070000000400000007000078
:103A3000000600000006000000060000000600006E
:103A4000000600000006000000060000000600005E
:103A500000060000000C0000000E0000000C00003A
:103A6000801C0000000C0000FFFC0000000C0000A7
:103A7000FFF8000000060000003000000006000013
:103A8000007000000003000000E000000001800062
:103A90000FC000FFFF018000FFC07FFFFFE0C000FC
:103AA000F8C3FE0000F9C00000FFC000003F800026
:103AB000007C0000000F80000000000000000000FB
:103AC00000000000000000000000000000000000F6
:103AD0000000000000000000000000001C000000CA
:103AE000000000003F0000000000000077800000A0
:103AF00001F0000061C0000003FC0000E0C0000015
:103B0000031F00FFC0E000000307FFFFE07000009C
:103B10000301FFF0003000000300700000380000D7
:103B200003000000001C000003000000001E000055
:103B300003800000000F0000030000000007800069
:103B4000070000000001C000060000000000E000C7
:103B50000E000000380070001C00180038007800CB
:103B600018001C003800180038001C001C00080059
:103B700070001C001C00000060001C3C1C000000C9
:103B8000E0001DFE1C003000C0001FC61C003800F5
:103B900080001F031C001C0080001C0700000C009C
:103BA0000000380E03E000006000703C0FF0C00021
:103BB0006000E0780C30C000E001C0E01830E000A8
:103BC000000180C0183060000C03018019FFE00084
:103BD0000C07038019FFC0001C2203001C1C0000FE
:103BE0001FF006000C0C00000FF00E000E0C000081
:103BF00000180C000406000000180C00000600006D
:103C00000018000000060000000C00000006000084
:103C1000000C000000070000000C0000000700007E
:103C2000000C000000070000000600000007000074
:103C3000000600000006000000060000000600006C
:103C4000000600000006000000060000000600005C
:103C500000060000000C0000000E0000000C000038
:103C6000801C0000000C0000FFFC0000000C0000A5
:103C7000FFF8000000060000003000000006000011
:103C8000007000000003000000E000000001800060
:103C90000FC000FFFF018000FFC07FFFFFE0C000FA
:103CA000F8C3FE0000F9C00000FFC000003F800024
:103CB000007C0000000F80000000000000000000F9
:103CC00000000000000000000000000000000000F4
:103CD0000000000000000000000000000F000000D5
:103CE000000000001F00000000F800003B80000002
:103CF00000FC000071C0000001CF000070E0000077
:103D0000018381FFE06000000181FFFFC0700000BF
:103D10000180FFE00030000001800000003800005A
:103D200003800000001C000003800000000E000063
:103D300003800000000700000300000000070000EF
:103D400007000000000380000E0000000001C0001A
:103D50000C0000003000E0001C003800780070000B
:103D600038003800780038003000380038001C0077
:103D70007000380038000C00E00038F8380000000F
:103D8000C0003FFC3800200080003F0E38003000AB
:103D900080003C063800380000007806100018004B
:103DA0006000F01E00001800E001C07C7800800078
:103DB000C001C0E1FE01C000800381C18700C000D6
:103DC0000C0703818300E0001C060301819FE000D3
:103DD0001C0E0601C1BFC0001FEC0E00E030000049
:103DE0001FF00C00601800000F301C00601800006D
:103DF0000030180030180000003030003F1800007C
:103E0000003000001F180000003000000018000003
:103E10000030000000180000003000000018000012
:103E20000030000000180000003000000018000002
:103E300000300000001800000030000000180000F2
:103E400000300000001800000030000000180000E2
:103E50001830000000180000587000000018000022
:103E6000DC60000000300000CFE000000030000007
:103E700007E000000030000000600000003000009B
:103E800000C000000030000080C003FFF8300000D8
:103E9000FFC01FF9FE300000FFC0FE0007F0000069
:103EA0001CC7E00003E0000000FF000000C00000AD
:103EB000007800000000000000000000000000008A
:103EC00000000000000000000000000000000000F2
:103ED000000000000000000000000000038000005F
:103EE000003800000FC00000007C00001CE0000053
:103EF00000EF00003860000000C780007070000014
:103F000001C1FFFFE03000000180FFFFC030000072
:103F10000180000000300000018000000038000037
:103F200003800000001C000003000000000E0000E1
:103F300003000000000E0000070000000007000062
:103F40000E000000000380000C0000000001C00013
:103F50001C0020006000E00038007000E0007000ED
:103F600070007000E000380060007000F0001C007D
:103F7000E00071E0E0000C00C00077F0F00000000D
:103F800080007F387000000000007C186000300066
:103F900000007018600030006000E07860003800B9
:103FA000E001C0F000001800C00181C1F80000006D
:103FB000C0038383FC01C000000703060C00C0009F
:103FC0001C0607060C01C0001C0E06063E3FC00082
:103FD000180C0C067E3F00001FCC0C0600300000C1
:103FE0001FE01C0700300000006018038030000054
:103FF00000603801C030000000603000FE3000007A
:10400000006000003E300000006000000030000052
:104010000060000000300000006000000030000080
:104020000060000000300000006000000030000070
:104030000060000000600000006000000060000000
:1040400000600000006000000060000000600000F0
:10405000036000000060000006E000000060000057
:1040600076C0000000C0000060C0000000C000007A
:1040700070C0000000C0000070C0000000C0000060
:1040800038C000FF80C000001FC00FFFF0C000005C
:104090000FC07F00F9C0000003C3F0001F800000C4
:1040A00000CF80000F00000000FE000000000000B4
:1040B0000078000000000000000000000000000088
:1040C00000000000000000000000000000000000F0
:1040D00000000000000000000000000001E00000FF
:1040E000000F000007F00000003F80000F380000C4
:1040F0000039C0001C1800000070C00078180000D3
:1041000000E0FFFFE018000000C0FFFFC018000043
:1041100001C06000001800000180000000180000CD
:10412000018000000018000003800000001C000057
:1041300007000000000E000006000000000700005D
:104140000E000000000380001C0000000001C00001
:1041500038006000C000C0007000E000E000E00037
:104160006000E000E0007000E000E000E0003800E7
:10417000C000E780E0001C008000FFC0E0000C00F1
:104180000000F8E0E00000000000E060E000300027
:104190006001C060E0003000E00381E0C000380052
:1041A000C00703DC00001000C007077F800000008C
:1041B000800E0E77C001C0000C0C0C60E000C00047
:1041C0001C1C1C607003C000181C18703C7FC000D1
:1041D000181818383E7F00003FD8381C00600000D7
:1041E0001FC0300E0020000000C03007002000007B
:1041F00000C06003C020000000C06001F03000007B
:1042000000C060007820000000C0000010700000B6
:1042100000C000000060000000C00000006000005E
:1042200001C000000060000001C00000006000004C
:1042300001800000006000000180000000C000005C
:104240000180000000C000000180000000C00000EC
:10425000018000000180000001800000018000005A
:1042600001800000018000000180000003000000C8
:104270000180000003000000018000000700000032
:10428000018007FE0600000001807FFF8C00000017
:104290000181F801DC00000000C7C000F800000048
:1042A00000CF00000000000000FC00000000000043
:1042B0000078000000000000000000000000000086
:1042C00000000000000000000000000000000000EE
:1042D00000000000000000000000000000000000DE
:1042E0000004000000000000001F000001E00000CA
:1042F000003F800007F000000071C0001F30000088
:104300000060C0003C38000000E0FFFFF038000013
:1043100000C0FFFFE038000001C0000000380000CE
:104320000180000000380000038000000030000021
:10433000030000000038000007000000001C00001F
:104340000E000000000C00001C0000000006000031
:1043500038008000000700007001C0038003800067
:10436000E001C0038001C000C001C0038000E00084
:104370008001C003800070008001CF0380003800FE
:104380000001FF83800018000001F183800000001D
:10439000C001C18380000000C003818380006000F1
:1043A000C007078100006000800E0F000000700051
:1043B000001C1C03C00030001818180FE00100009A
:1043C0003838381C7003800030303018303F80009F
:1043D000387070187CFF80003FE06019FCFF00001F
:1043E0001FE06019C0E0000000C0C01C00E0000039
:1043F00000C0C00E00E0000000C0C0070060000068
:1044000001818003E060000001800000F0E0000016
:104410000180000000C000000180000000C000001A
:104420000380000000C000000300000000C0000086
:104430000300000000C000000300000000C00000F6
:104440000300000001800000030000000180000064
:104450000300000001800000030000000380000052
:10446000030000000300000003000000070000003C
:104470000300000006000000030000000C00000024
:10448000030000001C00000001803FE03800000035
:104490000180FFF07000000001C7E018E00000009C
:1044A00000CF001FC000000000FC000F80000000D3
:1044B0000078000000000000000000000000000084
:1044C00000000000000000000000000000000000EC
:1044D00000000000000000000000000000000000DC
:1044E0000004000000000000001F000001E00000C8
:1044F000003F800007F000000071C0001F30000086
:104500000060C0003C38000000E0FFFFF038000011
:1045100000C0FFFFE038000001C0000000380000CC
:10452000018000000038000003800000003000001F
:10453000030000000038000007000000001C00001D
:104540000E000000000C00001C000000000600002F
:1045500038008000000700007001C0038003800065
:10456000E001C0038001C000C001C0038000E00082
:104570008001C003800070008001CF0380003800FC
:104580000001FF83800018000001F183800000001B
:10459000C001C18380000000C003818380006000EF
:1045A000C007078100006000800E0F00000070004F
:1045B000001C1C03C00030001818180FE001000098
:1045C0003838381C7003800030303018303F80009D
:1045D000387070187CFF80003FE06019FCFF00001D
:1045E0001FE06019C0E0000000C0C01C00E0000037
:1045F00000C0C00E00E0000000C0C0070060000066
:1046000001818003E060000001800000F0E0000014
:104610000180000000C000000180000000C0000018
:104620000380000000C000000300000000C0000084
:104630000300000000C000000300000000C00000F4
:104640000300000001800000030000000180000062
:104650000300000001800000030000000380000050
:10466000030000000300000003000000070000003A
:104670000300000006000000030000000C00000022
:10468000030000001C00000001803FE03800000033
:104690000180FFF07000000001C7E018E00000009A
:1046A00000CF001FC000000000FC000F80000000D1
:1046B0000078000000000000000000000000000082
:1046C00000000000000000000000000000000000EA
:1046D00000000000000000000000000000000000DA
:1046E00000000000000000000006000000000000C4
:1046F000001F000000E00000003B800007F0000009
:104700000071C0001F30000000E0C0003C38000015
:1047100000C0FFFFF038000001C0FFFFE0380000DC
:10472000018000000038000003800000003000001D
:104730000300000000300000070000000038000007
:104740000E000000001C00001C000000000C000017
:1047500038000000000E0000700100020007000099
:10476000E003800700038000C00380070001C00051
:10477000800380070000C00000039C070000E000E9
:104780000003FF07000070000003F707000030007F
:10479000C003C18700001000C007018700000000AF
:1047A000800E07830000C000001C1F000000E00016
:1047B00000381CFC00006000303039FE00000000B2
:1047C000307071870003000070E061838003000097
:1047D00070C0E1C1C00380007FC0C0C0F8FF00000E
:1047E00007C0C06078FF00000181803000C0000079
:1047F0000181803800C000000183801E00C00000DD
:104800000303000780C0000003030003E0C00000B2
:1048100003000000E0C000000300000000C0000032
:104820000300000000C000000300000000C0000002
:104830000300000000C00000030000000180000031
:104840000300000001800000030000000180000060
:10485000030000000300000003000000030000004C
:104860000300000007000000030000000600000035
:10487000030000000C000000018000001C0000008C
:10488000018000001C0000000180000038000000D2
:1048900001807FC07000000001C7FFE0F000000051
:1048A00000CF00638000000000FC007F00000000DB
:1048B0000078003C00000000000000000000000044
:1048C00000000000000000000000000000000000E8
:1048D00000000000000000000000000000000000D8
:1048E00000000000000000000000000000000000C8
:1048F0000004000000000000001F000001E00000B4
:10490000003F800007F00000007180001F300000B1
:1049100000E1C0003C30000000C0FFFFF0380000A4
:1049200001C0FFFFC038000001800000003000001F
:10493000038000000030000007000000003000008D
:104940000E000000003800001C000000001C0000E9
:1049500038000000000E0000780000000007000092
:10496000F003000300070000E0038007000380005D
:10497000C00380070001C000800380070000E00042
:1049800000039807000060000003FE0700007000AD
:104990000003EE07000030008007860700000000DB
:1049A000800F07070000C000801C0E020000E0001E
:1049B00000181C000000E0000038380380004000B0
:1049C0003070700FE00200007060601CE0070000B3
:1049D00060E0E0187007000060C0C03870FF0000A1
:1049E000FF81C031FDFF00001F818033D9C000006E
:1049F0000381801800C000000303001C00C00000F9
:104A00000303000E00C0000003030007C0C0000045
:104A100003020001E0C000000700000041C00000E8
:104A20000700000001C00000070000000180000036
:104A3000070000000180000003000000018000006A
:104A400003000000018000000300000003000000DC
:104A5000030000000300000003000000030000004A
:104A60000300000007C000000180000007C0000034
:104A7000018000000E000000018000001C0000000A
:104A80000180000018C000000180000038E0000034
:104A900001807FC07C00000001C7FFE0FF00000034
:104AA00000CF00638300000000FC007F00000000D6
:104AB0000078003C00000000000000000000000042
:104AC00000000000000000000000000000000000E6
:104AD00000000000000000000000000000000000D6
:104AE00000000000000000000000000000000000C6
:104AF0000004000000000000001F000001E00000B2
:104B0000003F800007F00000007180001F300000AF
:104B100000E1C0003C30000000C0FFFFF0380000A2
:104B200001C0FFFFC038000001800000003000001D
:104B3000038000000030000007000000003000008B
:104B40000E000000003800001C000000001C0000E7
:104B500038000000000E0000780000000007000090
:104B6000F003000300070000E0038007000380005B
:104B7000C00380070001C000800380070000E00040
:104B80000003BC07000060000003FE070000700087
:104B90000003E707000030008007830700000000E3
:104BA000800E03070000C000801C0F020000E00020
:104BB00000381E000000E000003838FC0000400013
:104BC000307071FF0002000070E061838007000018
:104BD00060C0E181C007000061C0C1C1E0FF00000A
:104BE000FF81C0E0F9FF00001F81807019C0000044
:104BF00003018038008000000303001C00C0000097
:104C00000303000E00C000000303000780C0000083
:104C100003020003E0C0000007000000C1C0000064
:104C20000700000001C00000070000000180000034
:104C30000700000001800000030000000180000068
:104C400003000000018000000300000003000000DA
:104C50000300000003000000030000000300000048
:104C60000300000007C000000180000007C0000032
:104C7000018000000C000000018000001C0000000A
:104C80000180000018C000000180000038E0000032
:104C900001807FC07C00000001C7FFE0FF00000032
:104CA00000CF00638700000000FC007F00000000D0
:104CB0000078003C00000000000000000000000040
:104CC00000000000000000000000000000000000E4
:104CD00000000000000000000000000000000000D4
:104CE0000007000000000000000F800000600000CE
:104CF000001DC00001F800000038C00007D8000007
:104D0000003060001E1C000000707FF0780C000076
:104D100000E03FFFF00C000000C00000C01C0000DD
:104D200001C000000018000003800000001800000F
:104D300007000000001800000E000000001C00002A
:104D40001C000000000E000018000000000600001B
:104D500038018000000700007001C003800380005C
:104D6000E001C0038001C000C003C0038000C00098
:104D7000800380038000E000000380038000700057
:104D80000003FE0380003800C003FF03800018000A
:104D9000C003C30380001800C00783838000400065
:104DA000800E070100006000000C0E000000700083
:104DB000181C1C00000030003838380FC0002000DC
:104DC0003030301FE00380003870601860018000D0
:104DD0003FE06038707F80001FE0E031FCFF800022
:104DE00001C0C033F8FF000001C1C03900C000009D
:104DF0000181801C00C000000181800E00C0000005
:104E00000103800780C0000001010003E0C0000032
:104E100003000000E0C000000300000000C000002C
:104E20000300000000C000000300000000C00000FC
:104E30000300000001C000000180000001800000AC
:104E4000018000000180000001800000018000005E
:104E500001800000038000000180000003000000CA
:104E600001800000070000000180000007FC000036
:104E7000018000000FFC0000018000000C00000019
:104E8000018007E01804000001803FF03C0F0000A3
:104E900001C1F8387F06000000C7C01CE7E0000031
:104EA00000CF000FC1F8000000FC00070038000030
:104EB0000070000000000000000000000000000082
:104EC00000000000000000000000000000000000E2
:104ED0000000000000000000000180000000000051
:104EE0000007E00000000000000EE0000078000075
:104EF000001C700001FC00000038380007CC0000E6
:104F000000303FFE1F0E000000701FFFFC0E00006F
:104F100000E0001FF00C000000C00000000C0000CA
:104F200001C00000000C000003800000000C000025
:104F300007000000000E00000E0000000007000047
:104F40001C000000000300003800C00000038000C7
:104F50007000C001C001C000E001C001C000C0007D
:104F6000C001C001C000E0008001C001C0007000AD
:104F70000001C001C00038000001FF01C00018009E
:104F80006001FF81C0001C00E001E181C0000C0055
:104F9000C003C181C0000000800703818000300091
:104FA000000E070000003000181C0E3C0000380006
:104FB00018181C7F00001800383838E38000000003
:104FC000387030C1C001C0003FE070E0E001C000B7
:104FD0001FE060707C7FC00001C0E0303EFFC00079
:104FE00001C0C01800E000000181C01C00C000002A
:104FF0000181800F00C0000001818003C0C000005B
:1050000001818001E0C0000001800000E0C00000DC
:105010000180000000C000000180000000C000000E
:105020000180000000C000000180000000C00000FE
:10503000018000000180000001800000018000006C
:10504000018000000180000001800000018000005C
:1050500001C000000180000000C00000030000004B
:1050600000C000000380000001C0000003F0000049
:105070000180000003FFC00001800000071FC00086
:1050800001C007FE0600000001807FFF870060006E
:1050900000C1F801DFC0E00000C7C000FDF0000063
:1050A00000CF0000007F800000FC0000000F8000A7
:1050B0000078000000000000000000000000000078
:1050C0000080808080800080A0A0A05050F850F820
:1050D00050502078A05008D0C0C81020409818E048
:1050E00090A040A89068C0408020408080804020F0
:1050F000804020202040805020F820502020F820A0
:1051000020C04080F8C0C00810204080708898A857
:10511000C8887040C040404040E07088081020407F
:10512000F8F810201008887010305090F81010F81F
:1051300080F008088870304080F0888870F8081087
:10514000204040407088887088887070888878080F
:105150001060C0C000C0C0C0C000C040801020406F
:1051600080402010F800F880402010204080708897
:10517000081020002070880868A8A87070888888A7
:10518000F88888F08888F08888F070888080808827
:1051900070E09088888890E0F88080F08080F8F84F
:1051A0008080E0808080708880809888708888887F
:1051B000F8888888C04040404040C030101010102F
:1051C00090608890A0C0A09088808080808080F8C7
:1051D00088D8A8888888888888C8A8988888708887
:1051E0008888888870F08888F080808070888888B7
:1051F000A89068F08888F0A090887880807008086F
:10520000F0F82020202020208888888888887088CE
:10521000888888885020888888A8A8D88888885056
:105220002050888888885020202020F808102040AE
:1052300080F8E08080808080E08040201008E020BE
:1052400020202020E0205088F880402070087888B6
:10525000788080B0C88888F070808088700808687E
:10526000988888787088F88070304840E0404040E6
:1052700078887808308080B0C88888884000C0402E
:105280004040E010003010109060808090A0C0A0DE
:1052900090C04040404040E0D0A8A88888B0C8886E
:1052A00088887088888870F088F08080689878088E
:1052B0000808B0C880808070807008704040E0406E
:1052C00040483088888888986888888850208888EE
:1052D000A8A85088502050888888780870F8102036
:1052E00040F8204040804040208080808080808046
:1052F0008040402040408040A81000002000000076
:105300002100000022000000230000002400000013
:1053100025000000260000002700000028000000F3
:10532000290000002A0000002B0000002C000000D3
:105330002D0000002E0000002F00000030000000B3
:105340003100000032000000330000003400000093
:105350003500000036000000370000003800000073
:10536000390000003A0000003B0000003C00000053
:105370003D0000003E0000003F0000004000000033
:105380004100000042000000430000004400000013
:1053900045000000460000004700000048000000F3
:1053A000490000004A0000004B0000004C000000D3
:1053B0004D0000004E0000004F00000050000000B3
:1053C0005100000052000000530000005400000093
:1053D0005500000056000000570000005800000073
:1053E000590000005A0000005B0000005C00000053
:1053F0005D0000005E0000005F0000006000000033
:105400006100000062000000630000006400000012
:1054100065000000660000006700000068000000F2
:10542000690000006A0000006B0000006C000000D2
:105430006D0000006E0000006F00000070000000B2
:105440007100000072000000730000007400000092
:105450007500000076000000770000007800000072
:10546000790000007A0000007B0000007C00000052
:105470007D0000007E0000005C6500082000000048
:10548000E80300000700000000000000000000002A
:10549000000000000000000000000000000000000C
:1054A000C05000088C65000821000000E8030000DF
:1054B00007000000000000000000000000000000E5
:1054C000010007000300010007000000C1500008B0
:1054D000BC65000822000000E8030000070000008F
:1054E00000000000000000000000000003000300B6
:1054F0000200040003000000C8500008EC6500082A
:1055000023000000E8030000070000000000000086
:10551000000000000000000005000700010001007D
:1055200007000000CB5000081C66000824000000A3
:10553000E803000007000000000000000000000079
:105540000000000005000600010002000600000047
:10555000D25000084C66000825000000E803000057
:105560000700000000000000000000000000000034
:10557000050007000100010007000000D8500008E6
:105580007C66000826000000E80300000700000019
:1055900000000000000000000000000005000700FF
:1055A0000100010007000000DF500008AC660008A1
:1055B00027000000E80300000700000000000000D2
:1055C00000000000000000000200030002000500CF
:1055D00003000000E6500008DC6600082800000018
:1055E000E8030000070000000000000000000000C9
:1055F0000000000003000700020001000700000097
:10560000E95000081867000829000000E8030000BE
:105610000700000000000000000000000000000083
:10562000030007000200010007000000F05000081E
:10563000486700082A000000E80300000700000097
:105640000000000000000000000000000500050050
:105650000100020005000000F7500008786700080C
:105660002B000000E803000007000000000000001D
:10567000000000000000000005000500010002001D
:1056800005000000FC500008A86700082C0000007E
:10569000E803000007000000000000000000000018
:1056A00000000000020003000200010003000000EF
:1056B00001510008D86700082D000000E803000031
:1056C00007000000000000000000000000000000D3
:1056D0000500010001000400010000000451000861
:1056E000086800082E000000E80300000700000022
:1056F00000000000000000000000000002000200A6
:10570000020001000200000005510008386800088E
:105710002F000000E8030000070000000000000068
:10572000000000000000000005000500010002006C
:105730000500000007510008646500083000000003
:10574000E803000007000000000000000000000067
:105750000000000005000700010001000700000034
:105760000C5100089465000831000000E8030000B7
:105770000700000000000000000000000000000022
:105780000300070002000100070000001351000899
:10579000C465000832000000E803000007000000B4
:1057A00000000000000000000000000005000700ED
:1057B00001000100070000001A510008F46500080C
:1057C00033000000E80300000700000000000000B4
:1057D00000000000000000000500070001000100BB
:1057E0000700000021510008246600083400000072
:1057F000E8030000070000000000000000000000B7
:105800000000000005000700010001000700000083
:10581000285100085466000835000000E803000025
:105820000700000000000000000000000000000071
:105830000500070001000100070000002F510008CB
:105840008466000836000000E8030000070000003E
:10585000000000000000000000000000050007003C
:10586000010001000700000036510008B46600087E
:1058700037000000E80300000700000000000000FF
:10588000000000000000000005000700010001000A
:10589000070000003D510008E466000838000000E1
:1058A000E803000007000000000000000000000006
:1058B00000000000050007000100010007000000D3
:1058C000445100082067000839000000E803000088
:1058D00007000000000000000000000000000000C1
:1058E0000500070001000100070000004B510008FF
:1058F000506700083A000000E803000007000000BD
:105900000000000000000000000000000200050090
:1059100002000200050000005251000880670008E4
:105920003B000000E803000007000000000000004A
:10593000000000000000000002000600020001005C
:105940000600000057510008B06700083C00000046
:10595000E803000007000000000000000000000055
:105960000000000004000700020001000700000022
:105970005D510008E06700083D000000E8030000FA
:105980000700000000000000000000000000000010
:10599000050003000100030003000000645100083B
:1059A000106800083E000000E80300000700000047
:1059B00000000000000000000000000004000700DC
:1059C000010001000700000067510008406800085E
:1059D0003F000000E8030000070000000000000096
:1059E00000000000000000000500070001000100A9
:1059F000070000006E5100086C65000840000000C0
:105A0000E8030000070000000000000000000000A4
:105A10000000000005000700010001000700000071
:105A2000755100089C65000841000000E803000073
:105A3000070000000000000000000000000000005F
:105A40000500070001000100070000007C5100086C
:105A5000CC65000842000000E803000007000000D9
:105A6000000000000000000000000000050007002A
:105A7000010001000700000083510008FC650008D8
:105A800043000000E80300000700000000000000E1
:105A900000000000000000000500070001000100F8
:105AA000070000008A5100082C660008440000002E
:105AB000E8030000070000000000000000000000F4
:105AC00000000000050007000100010007000000C1
:105AD000915100085C66000845000000E8030000E2
